:020000040800F2
:1000000008070020A1010008CB1D0008791C00088A
:10001000C91D0008AD020008BD2100080000000055
:10002000000000000000000000000000CF1D0008DC
:10003000D502000800000000CD1D0008D11D0008F9
:10004000BB010008BB010008BB010008BB010008A0
:10005000BB010008BB010008BB010008BB01000890
:10006000BB010008BB010008BB010008BB01000880
:10007000BB010008BB010008BB010008BB01000870
:10008000BB010008BB010008BB010008BD0200085D
:10009000B1020008BB010008BB010008BB01000859
:1000A000BB010008BB010008BB010008BB01000840
:1000B000BB010008BB010008BB010008BB01000830
:1000C000BB010008BB010008BB010008BB01000820
:1000D000BB010008B1210008BB010008BB010008FA
:1000E000BB010008BB010008BB010008BB01000800
:1000F000BB010008BB010008BB010008BB010008F0
:10010000BB010008BB010008BB010008BB010008DF
:10011000BB010008BB010008BB010008BB010008CF
:10012000BB010008BB010008BB010008BB010008BF
:10013000BB010008BB010008BB010008BB010008AF
:10014000C9020008BB010008BB010008BB01000890
:10015000BB010008BB010008BB010008BB0100088F
:10016000BB010008BB010008BB010008BB0100087F
:10017000BB010008BB010008BB0100080000000033
:10018000BB010008BB010008DFF810D000F07CF8CC
:1001900000480047DD210008AFF300800807002079
:1001A0000648804706480047FEE7FEE7FEE7FEE711
:1001B000FEE7FEE7FEE7FEE7FEE7FEE7691E000852
:1001C000890100082DE9F05F0546002092469B4614
:1001D00088460646814640241BE02846414647465D
:1001E000224600F041F853465A46C01A914110D3B6
:1001F00011461846224600F028F82D1A67EB010830
:100200004F4622460120002100F01FF817EB00099D
:100210004E41201EA4F10104DFDC484631462A4647
:100220004346BDE8F09FD2B201E000F8012B491E21
:10023000FBD270470022F6E710B513460A46044683
:100240001946FFF7F0FF204610BD202A04DB203AB4
:1002500000FA02F1002070479140C2F1200320FA19
:1002600003F3194390407047202A04DB203A21FA17
:1002700002F00021704721FA02F3D040C2F12002BF
:100280009140084319467047064C074D06E0E06868
:1002900040F0010394E8070098471034AC42F6D3CD
:1002A000FFF776FF6425000884250008FEE70000BC
:1002B000014800F0F5B900006C020020014800F090
:1002C000EFB900006C020020014800F0E9B900001D
:1002D00094020020704772B6FEE790F82020012AB1
:1002E00007D0022A05D0416A41F4802141620120F1
:1002F000704700684269114341610020704770B443
:1003000090F82040D0F800C0DCF808C0012C08D0DC
:10031000022C06D0416A41F48021416270BC012068
:1003200070470CF080640CF000652C4302D11CF087
:10033000805F55D0CCF3016C012404FA0CF41C60EE
:100340008B684FF4C0749BB1CD6804EB0C162B4343
:100350004D6843EAC5030568AB514FF4C2730668A4
:1003600003EB0C130D69F550097D012909D00DE04F
:100370000D88CB6804EB0C1643EA45530568AB5176
:10038000EBE70168CD5845F48075CD501179D379EC
:10039000557941EA036193791B0443EA0523194324
:1003A0004FF4C675036805EB0C1559511178D378D5
:1003B00041EA0361937852781B0443EA0222114315
:1003C0004FF4C473026803EB0C13D150016804EBC3
:1003D0000C100A5842F001020A5070BC002070470D
:1003E000416A41F40011416270BC01207047000075
:1003F00090F82020012A07D0022A05D0416A41F452
:1004000080214162012070474248D0F8002242F02A
:100410000102C0F80022D0F8002222F47C52C0F879
:100420000022D0F800224B6A42EA0322C0F80022E0
:100430000A7D012302F01F0203FA02F2D0F81C32F7
:100440009343C0F81C32CB69D3B9D0F80C32934334
:10045000C0F80C32B1F80CC04B686CF31F43D1F8F4
:1004600014C000EBCC0CCCF84032B1F808C00B68DB
:100470006CF31F43D1F814C000EBCC0CCCF8443221
:10048000CB69012B1AD1D0F80C321343C0F80C32CF
:10049000B1F800C04B686CF31F43D1F814C000EBF7
:1004A000CC0CCCF84032B1F808C0CB686CF31F43D9
:1004B000D1F814C000EBCC0CCCF844328B697BB182
:1004C000D0F804321343C0F804320B6973B1D0F88A
:1004D00014321343C0F81432096A01290CD010E019
:1004E000D0F804329343C0F80432EEE7D0F8143267
:1004F0009343C0F81432EFE7D0F81C121143C0F850
:100500001C12D0F8001221F00101C0F800120020E6
:10051000704700000064004003480068416941F0F2
:1005200002014161704700006C02002030B490F875
:1005300020C0BCF1010F09D0BCF1020F06D0416A06
:1005400041F48021416230BC0120704739B1D0F8BC
:1005500000C0DCF810C01CF0030F33D006E0D0F868
:1005600000C0DCF80CC01CF0030F24D04FF4D87C82
:1005700004680CEB011C54F80C4004F00404946073
:100580003CB3046854F80C40E4085460046854F820
:100590000CC00CF0020CC2F80CC04FF4DA7C0468FA
:1005A0000CEB011C54F80C5005F00F05082D16D368
:1005B0000824146118E0416A41F40011416230BC22
:1005C00001207047416A41F40011416230BC0120B2
:1005D0007047046854F80C40640D1460D6E754F872
:1005E0000C4004F00F041461046854F80C40C4F388
:1005F00007249461046854F80CC04FEA1C4CC2F8FC
:1006000014C04FF4DC72D0F800C002EB01125CF8A9
:1006100002C083F800C0D0F800C05CF802C04FEA06
:100620001C2C83F801C0D0F800C05CF802C04FEA6F
:100630001C4C83F802C0D0F800C05CF80220120EF7
:10064000DA704FF4DE72D0F800C002EB01125CF8F1
:1006500002C083F804C0D0F800C05CF802C04FEAC2
:100660001C2C83F805C0D0F800C05CF802C04FEA2B
:100670001C4C83F806C0D0F800C05CF80220120EB3
:10068000DA7139B10068016941F02001016130BCC3
:10069000002070470068C16841F02001C160F6E7A2
:1006A0002DE9F05F0546002428684669D0F80490DB
:1006B0008768D0F80CA0D0F810B0D0F8188016F0E9
:1006C000010F54D017F0010F17D00121816017F0EE
:1006D000020F03D0284600F0EBFA0EE017F0040FEB
:1006E00002D04FF4006408E017F0080F02D04FF476
:1006F000805402E0284600F0DAFA17F4807F19D01F
:1007000029684FF48070886017F4007F03D0284672
:1007100000F0D0FA0EE017F4806F02D044F40054D9
:1007200008E017F4006F02D044F4804402E0284649
:1007300000F0BFFA17F4803F19D029684FF48030D9
:10074000886017F4003F03D0284600F0B5FA0EE0A9
:1007500017F4802F02D044F4004408E017F4002F6F
:1007600002D044F4803402E0284600F0A4FA16F0E7
:10077000080F07D01AF0100F04D044F40074296851
:100780001020C86016F0040F4FF0080707D01AF0C9
:10079000080F04D02868C760284600F0D5F916F085
:1007A000020F07D02868C06810F0030F02D0284657
:1007B00000F0CCF916F0400F07D01BF0100F04D05A
:1007C00044F4806429681020086116F0200F07D0D7
:1007D0001BF0080F04D028680761284600F032FAA1
:1007E00016F0100F07D02868006910F0030F02D030
:1007F000284600F028FA16F4003F08D019F0100F30
:1008000005D0296810204860284600F01DFA16F42B
:10081000803F07D019F0080F04D0286847602846A9
:1008200000F04BFA16F4004F4AD019F0040F44D0F0
:1008300016F4807F04D018F0010F01D044F00104B9
:1008400016F4007F04D018F0020F01D044F0020427
:1008500016F4806F04D018F0040F01D044F00404A3
:1008600016F4006F29D018F0700F26D008F0700031
:10087000402815D006DC102809D020280AD03028BE
:1008800016D10AE050280ED0602811D10EE044F0B5
:1008900008040DE044F010040AE044F0200407E0EE
:1008A00044F0400404E044F0800401E044F4807427
:1008B0002868816921F070018161296804204860FD
:1008C000002C05D0686A204368622846FFF724FEA2
:1008D000BDE8F09F70B50446002C03D094F82000CA
:1008E00010B104E0012070BD204600F0A7F8206898
:1008F000016841F00101016000F07EFB05462068BF
:1009000040684FF0050610F0010F11D100F074FBA4
:10091000401B0A2807D9606A40F40030606284F8FE
:100920002060012070BD2068406810F0010FEDD0FC
:100930002068016821F00201016000F05DFB0546BE
:100940002068406810F0020F11D000F055FB401BEA
:100950000A2807D9606A40F40030606284F8206099
:10096000012070BD2068406810F0020FEDD1207E9C
:1009700001283FD02068016821F080010160607E7D
:1009800001283DD02068016821F040010160A07E6F
:1009900001283BD02068016821F020010160E07E41
:1009A000012839D02068016841F010010160207FE2
:1009B000012837D02068016821F008010160607FBC
:1009C000012835D02068016821F004010160E16848
:1009D000A068626908432169114308436168491EA0
:1009E00008432168C86100206062012084F820006B
:1009F000002070BD2068016841F080010160BEE701
:100A00002068016841F040010160C0E7206801688A
:100A100041F020010160C2E72068016821F0100167
:100A20000160C4E72068016841F008010160C6E781
:100A30002068016841F004010160C8E7F0B587B0A3
:100A4000044614216846FFF7F5FB3A4B3A48DFF8B5
:100A5000E0E01968D4F800C0374A032502260927C8
:100A600010300024491CF4452AD11960012907D10E
:100A7000016841F000710160006800F000700590AD
:100A8000106840F0080010601068CDE9005600F0D2
:100A90000800CDE9047069462848CDE9024500F018
:100AA00085F900221146132000F016FB132000F0F8
:100AB00005FB00221146142000F00EFB142032E04A
:100AC000DFF87CE0F44530D1D0F800C04CF0806C09
:100AD000C0F800C0D0F800C001290CF0806CCDF83F
:100AE00014C0196007D1016841F00071016000680D
:100AF00000F000700590106840F00200106010686F
:100B000002AB00F0020005906020CDE9000683E80A
:100B1000B00069460B4800F049F900221146402018
:100B200000F0DAFA402000F0C9FA07B0F0BD00008A
:100B3000006400400800002030380240000C0240F1
:100B400000680040000402407047000030B589B0E2
:100B5000044640F20120029000200390049005908A
:100B60000820069000F048FA314D2968401AB0F587
:100B7000FA7F07D94FF480612E4800F02DFA00F07B
:100B80003BFA28606B4602AA00212046FFF7CEFC04
:100B90000298A0F50070013806D0012806D002287E
:100BA00006D0032807D105E0002404E0012402E078
:100BB000022400E00324204804EB440100EB011070
:100BC000F1EE040A8289C281BDF8001049BA818120
:100BD000BDF802308A1A5BBA0380BDF80430B2F562
:100BE000805F5BBA00EE103AB8EE400A20EE200AB1
:100BF000DFED120A20EE200A80ED010A9DF8063092
:100C0000837202DD4269521E04E012F5805F426980
:100C100001DA521C426101EB4231028A891A816178
:100C200007480068416941F00201416109B030BDE7
:100C300000000020001C02401C0000200000803842
:100C40006C02002070477047704770B5044694F8F6
:100C50002000012805D0606A40F400206062012075
:100C600070BD022084F820002068016821F0010195
:100C7000016000F0C1F905462068406810F0010FDE
:100C800012D000F0B9F9401B0A2808D9606A40F474
:100C900000306062052084F82000012070BD2068CB
:100CA000406810F0010FECD10020606270BD704709
:100CB0007047704770477047704770472DE9F041A3
:100CC0000446A66D00F098F9054694F83500002713
:100CD000022806D08020606584F834700120BDE8C9
:100CE000F0812068016821F01601016020684169E7
:100CF00021F080014161206C08B9A06C20B120680E
:100D0000016821F0080101602068016821F00101FB
:100D100001602068006810F0010F12D000F06CF93B
:100D2000401B052808D920206065032084F8350081
:100D300084F83470BDE8F0812068006810F0010F7D
:100D4000ECD194F85C003F2101FA00F0B060012082
:100D500084F8350084F834700020BDE8F08190F804
:100D60003510022903D080214165012070470521FB
:100D700080F835100068016821F001010160002051
:100D80007047000070B5044600F036F90546B4F12E
:100D9000FF3F02D004480078044400F02DF9401BC6
:100DA000A042FAD370BD00000C0000202DE9F84FDE
:100DB0000022DFF818A2DFF810924FF0010E03278F
:100DC0004FF00F08AAF1040B0EFA02FC0B6803EABD
:100DD0000C0363457DD10C7904F00304012C01D090
:100DE000022C14D18568540007FA04F6B543CE6886
:100DF00006FA04F42C438460446824EA0C0C0C7951
:100E0000C4F30014944044EA0C0CC0F804C0D1F8B8
:100E100004C037EA0C0C0CD0C4684FEA420C07FA45
:100E20000CF5AC438D6805FA0CFC4CEA040CC0F8D8
:100E30000CC091F804C00CF0030CBCF1020F12D1ED
:100E40004FEAD20C00EB8C04256A4FEA427C4FEA51
:100E5000DC6C08FA0CF6B5430E6906FA0CFC4CEA99
:100E6000050CC4F820C004684FEA420C07FA0CF5E0
:100E7000AC430D7905F0030505FA0CFC4CEA040CB3
:100E8000C0F800C0D1F804C01CF4403F7DD0D9F8B0
:100E900000C04CF4804CC9F800C0D9F800C00CF474
:100EA000804CCDF800C022F0030C0CF1804505F514
:100EB0009835D5F808C89407240F08FA04F62CEAE8
:100EC0000606A0F1804CBCF5003C64D0A0F1804C3B
:100ED00000E05AE0BCF5013C60D0A0F1804CBCF5CC
:100EE000023C5ED0A0F1804CBCF5033C5CD0A0F18C
:100EF000804CBCF5043C5AD0A0F1804CBCF5053CBC
:100F000058D0A0F1804CBCF5063C56D0A0F1804CE6
:100F1000BCF5073C54D04FF0080C0CFA04FC4CEA2A
:100F2000060CC5F808C8DAF800C02CEA030C4C68B7
:100F300014F4801F01D04CEA030CCAF800C0244C02
:100F4000D4F800C02CEA030C4D6815F4001F01D042
:100F50004CEA030CC4F800C0DBF800C02CEA030C18
:100F60004C6814F4003F01D04CEA030CCBF800C0ED
:100F7000184CD4F800C02CEA030C4D6815F4803FDF
:100F800001D04CEA030CC4F800C0521C102AFFF434
:100F90001BAFBDE8F88F4FF0000CBEE74FF0010C1F
:100FA000BBE74FF0020CB8E74FF0030CB5E74FF08A
:100FB000040CB2E74FF0050CAFE74FF0060CACE7BE
:100FC0004FF0070CA9E7000044380240083C0140FC
:100FD0000C3C0140003C0140426921EA02031140FF
:100FE00043EA014181617047002A01D08161704765
:100FF0000904816170470000014880687047000063
:101000000C0000200248816802781144816070471A
:101010000C00002010B50B48016841F4007101601C
:10102000016841F480610160016841F480710160F0
:10103000032000F085F8002000F006F800F026F804
:10104000002010BD003C024070B504460D4D4FF429
:101050007A712878B1FBF0F00B490968B1FBF0F028
:1010600000F0DEFB08B1012070BD102C07D2002279
:101070002146501E00F030F86C60002070BD012049
:1010800070BD00000C000020180000200A4808B5C0
:10109000016841F480410160006800F480400090E4
:1010A0000548001F016841F080510160006800F0B0
:1010B0008050009008BD00004438024000280ADB40
:1010C00000F01F01012202FA01F14009800000F145
:1010D000E020C0F80011704710B4184B1B68C3F330
:1010E0000223C3F1070CBCF1040F01D94FF0040C2B
:1010F0001C1D072C01D2002300E0DB1E012404FA92
:101100000CFCACF1010C0CEA0101994004FA03F368
:101110005B1E1A401143002806DB00F1E0200901A4
:1011200080F8001410BC704700F00F0000F1E020C0
:10113000090180F8141D10BC704700000CED00E0A0
:1011400000F00700064A11684FF6FF03194041EA14
:10115000002040F0FD7040F080601060704700009B
:101160000CED00E02DE9F04704460D46002C13D0AD
:10117000DFF85491D9F80000EFB200F00700A84260
:101180000DD289F80070D9F8000000F00700A842DD
:1011900005D00120BDE8F0870120BDE8F087206878
:1011A0004A4E10F0020F14D010F0040F03D0306834
:1011B00040F4E0503060207810F0080F03D0306821
:1011C00040F4604030603068A16820F0F0000843CF
:1011D0003060207810F0010F3ED060683C49012853
:1011E00008D002280DD003280BD0096811F0020F97
:1011F00028D00AE0096811F4003F06D10120BDE8BB
:10120000F087096811F0007F19D0316821F00301DF
:1012100008433060FFF7F0FE80463068616800F0F8
:101220000C00B0EB810F17D041F2883AFFF7E4FED3
:10123000A0EB0800504508D90320BDE8F087012045
:10124000BDE8F0870120BDE8F0873068616800F0F4
:101250000C00B0EB810FE9D1D9F8000000F00700D5
:10126000A8420AD989F80070D9F8000000F00700F8
:10127000A84202D00120BDE8F087207810F0040FCA
:1012800005D03068E16820F4E050084330602078F1
:1012900010F0080F06D03068216920F4604040EA61
:1012A000C100306000F042F831680A4AC1F303110E
:1012B000515CC8400849086008480068FFF7C4FE50
:1012C0000020BDE8F0870000003C024008380240E2
:1012D000003802404C2500081800002010000020B3
:1012E00001480068704700001800002000B5FFF7B3
:1012F000F7FF04490968044AC1F38221515CC840E0
:1013000000BD0000083802405C25000800B5FFF76A
:10131000E7FF04490968044AC1F34231515CC840FF
:1013200000BD0000083802405C25000810B51748D1
:10133000006810F00C01164816D0164B042912D084
:10134000082911D1144C216801F03F02216811F4E1
:10135000800F0AD02068C0F38810A0FB030100238F
:10136000FEF730FF09E0184610BD21680023C1F3E5
:101370008811A1FB0001FEF725FF2168C1F301419F
:10138000491C4900B0FBF1F010BD000008380240D4
:101390000024F400001BB700043802402DE9F84F88
:1013A0000446002C12D02078FB4E10F0010FA6F15D
:1013B000040563D0301D016801F00C0104290CD034
:1013C000006800F00C00082803D010E00120BDE800
:1013D000F88F306810F4800F09D0286810F4003FAF
:1013E0004CD06068002849D10120BDE8F88F6068C2
:1013F000B0F5803F14D0B0F5A02F16D0286820F4A7
:1014000080302860286820F480202860606810B34D
:10141000FFF7F2FD0746286810F4003F0ED02DE0DC
:10142000286840F480302860F0E7286840F4802085
:101430002860286840F480302860E7E7FFF7DCFD8B
:10144000C01B642802D90320BDE8F88F286810F477
:10145000003FF3D012E0FFF7CFFD0746286810F4F5
:10146000003F0BD0FFF7C8FDC01B642802D9032042
:10147000BDE8F88F286810F4003FF3D12078C74FFB
:1014800010F0020F4FF0000957D0C548016811F065
:101490000C0F14D0006800F00C00082803D130684D
:1014A00010F4800F0BD0E06880B301203860FFF7A4
:1014B000A3FD8046286810F0020F12D01EE02868B5
:1014C00010F0020F05D0E068012802D00120BDE82D
:1014D000F88F2868216920F0F80040EAC1002860F0
:1014E0002BE0FFF789FDA0EB0800022802D90320BA
:1014F000BDE8F88F286810F0020FF2D02868216943
:1015000020F0F80040EAC100286016E0FFE7C7F8C5
:101510000090FFF771FD8046286810F0020F0CD094
:10152000FFF76AFDA0EB0800022802D90320BDE8FE
:10153000F88F286810F0020FF2D1207810F0080F11
:1015400035D09848DFF860A26169C1B1012101601E
:10155000FFF752FD8046DAF8000010F0020F26D1A6
:10156000FFF74AFDA0EB0800022802D90320BDE8DE
:10157000F88FDAF8000010F0020FF1D017E0C0F891
:101580000090FFF739FD8046DAF8000010F0020FF6
:101590000DD0FFF731FDA0EB0800022802D903208F
:1015A000BDE8F88FDAF8000010F0020FF1D12078D2
:1015B00010F0040F71D04FF000087C48006810F064
:1015C000805F0AD17948016841F08051016000686C
:1015D00000F0805000904FF00108DFF8D4B1DBF844
:1015E000000010F4807F1BD1DBF8000040F4807015
:1015F000CBF80000FFF700FD8246DBF8000010F496
:10160000807F0DD1FFF7F8FCA0EB0A00022802D979
:101610000320BDE8F88FDBF8000010F4807FF1D0E4
:10162000A068DFF890B1012818D005281DD0DBF89C
:10163000000020F00100CBF80000DBF8000020F0F3
:101640000400CBF80000A06840B3FFF7D5FC824649
:10165000DBF8000010F0020F14D03EE0DBF80000D1
:1016600040F00100CBF80000EDE7DBF8000040F0AF
:101670000400CBF80000DBF8000040F00100CBF8DC
:101680000000E0E7FFF7B8FCA0EB0A0141F2883068
:10169000814204D90320BDE8F88F26E005E0DBF89D
:1016A000000010F0020FEDD017E0FFF7A5FC824616
:1016B000DBF8000010F0020F0FD0FFF79DFCA0EB4D
:1016C0000A0141F28830814202D90320BDE8F88F37
:1016D000DBF8000010F0020FEFD1B8F1010F04D1D8
:1016E0003248016821F080510160A069F0B32C49B3
:1016F00009684FF0FF3801F00C01082966D0022874
:1017000010D0C7F86090FFF777FC0446286810F007
:10171000007F2BD0FFF770FC001B022851D903205B
:10172000BDE8F88FC7F86090FFF766FC814628682F
:1017300010F0007F0CD0FFF75FFCA0EB090002283F
:1017400002D90320BDE8F88F286810F0007FF2D19D
:10175000216AE069A26A0843616A08EB52028901C2
:1017600041EA0241084394F82C1000E055E040EAB9
:101770000160306001203866FFF73EFC04462868AF
:1017800010F0007F49D1FFF737FC001B022813D966
:101790000320BDE8F88F00000438024000004742F3
:1017A00008380240800E47427438024040380240F8
:1017B0000070004070380240286810F0007FE2D0CE
:1017C0002BE0286810F0007FA4D126E0012822D069
:1017D0003068E26900F4800191421AD1226A00F077
:1017E0003F01914215D147F6C071626A0140B1EBE9
:1017F000821F0ED1A26A00F4403108EB5202B1EB15
:10180000024F06D194F82C1000F07060B0EB016F1D
:1018100003D00120BDE70120BBE70020B9E70000AD
:10182000401EB0F1807F01D3012070474FF0E021CE
:101830004861044AF0201070002088610720086188
:101840000020704723ED00E070477047F8B504466C
:1018500022681068D168536900F00F0CBCF1000FCA
:101860000AD110F0200F07D011F0200F04D020462D
:10187000BDE8F84000F042BB0025BCF1000F75D078
:1018800003F0010C01F490765CEA06066ED010F0CD
:10189000010F06D011F4807F03D0626C42F0010288
:1018A000626410F0040F06D013F0010F03D0626CD5
:1018B00042F00202626410F0020F06D013F0010F32
:1018C00003D0626C42F00402626410F0080F08D08A
:1018D00001F0200252EA0C0203D0626C42F00802CE
:1018E0006264626C002A35D010F0200F05D011F030
:1018F000200F02D0204600F001FB20684069C0F3B1
:101900008010616C11F0080F00D148B3204600F040
:10191000C1FA2068406910F0400F1CD020681430D4
:1019200050E8001F21F0400140E80012002AF5D1E4
:10193000E06B60B15E490165E06BFFF710FA0028CB
:1019400008D0E06B016D01B0BDE8F04008472046CB
:10195000FFF77BFFF8BD2046FFF777FFF8BD05E0F6
:10196000FFE72046FFF771FF6564F8BD236B012B8D
:101970007ED110F0100F7BD011F0100F78D01068CE
:101980005068009050694FF0200310F0400F4FF066
:10199000020644D0E16B0868406880B20028E4D0B9
:1019A000A28D8242E1D9E085C869B0F5807F2DD053
:1019B00020680C3050E8001F21F4807140E80012CC
:1019C000002AF5D12068143050E8001F21F00101F1
:1019D00040E80012002AF5D12068143050E8001FBA
:1019E00021F0400140E80012002AF5D184F842308D
:1019F000256320680C3050E8001F21F0100140E8FA
:101A00000012002AF5D1E06BFFF758F96663A08D4C
:101A1000E18D401A81B22046FFF716FFF8BDA08D78
:101A2000E18D401A81B2E08D0028F7D00029F5D071
:101A300020680C3050E8002F22F4907240E8002C0F
:101A4000BCF1000FF4D12068143050E8002F22F0D0
:101A5000010240E8002CBCF1000FF4D184F84230C0
:101A6000256320680C3050E8002F22F0100200E0BF
:101A700008E040E80023002BF3D166632046FFF71F
:101A8000E3FEF8BD10F0800F07D011F0800F04D0F6
:101A90002046BDE8F84000F015BB10F0400FF0D034
:101AA00011F0400FEDD02046BDE8F84000F019BA23
:101AB000851E000870B50446002C04D094F841003F
:101AC000002510B106E0012070BD84F8405020468A
:101AD00000F024F8242084F841002068C16821F433
:101AE0000051C160204600F06FFA2068016921F4BE
:101AF000904101612068416921F02A01416120681B
:101B0000C16841F40051C1606564202084F841003F
:101B100084F842006563002070BD0000F0B587B016
:101B2000044614216846FEF785FB20492068884258
:101B30003AD11F480024016841F01001016000689B
:101B400000F0100005901A481438016841F00201B5
:101B50000160016801F002010591016841F0010195
:101B600001600068022500F0010005908020CDE9A9
:101B7000000502AA0326072782E8D00069460D481F
:101B8000FFF714F92802CDE9000502AA694682E8A8
:101B9000D0000948FFF70AF9002211462520FFF777
:101BA0009BFA2520FFF78AFA07B0F0BD001001402C
:101BB00044380240000402400000024070472DE912
:101BC000F84304460E4615461F4694F84100202867
:101BD00002D00220BDE8F8837EB175B100206064B8
:101BE000212084F84100FFF707FA8146A584E584A7
:101BF000A068B0F5805F03D004E00120BDE8F88361
:101C0000206990B135460026E08C4FF02008C8B11D
:101C10004B46002280212046009700F082FA30B126
:101C200084F841800320BDE8F8830025ECE7B5B1D6
:101C30002168287848606D1CE08C401EE084E08CB0
:101C40000028E5D14B46002240212046009700F0B5
:101C500068FA58B184F841800320BDE8F8833088E1
:101C60002168C0F308004860B61CE5E784F84180AD
:101C70000020BDE8F8837047FEE70000104810B56B
:101C80000E4901600321416000214FF40022816070
:101C9000C0E903124FF440124261017601224276FC
:101CA0008176C17601774177FEF714FE002803D0D4
:101CB000BDE81040FEF70FBB10BD000000640040FF
:101CC0006C0200200E4810B50C49016003214160F0
:101CD00000214FF430228160C0E903124161017696
:101CE00041768176C17601774177FEF7F3FD0028D2
:101CF00003D0BDE81040FEF7EEBA10BD006800400A
:101D00009402002070B586B014216846FEF792FA5E
:101D10001D480024016841F002010160016801F0E2
:101D200002010591016841F001010160016801F0C3
:101D300001010591016841F008010160016801F0AD
:101D400008010591016841F004010160016801F09A
:101D500004010591016841F08001016000680122E1
:101D600000F08000094E9502059029463046FFF7A5
:101D70003BF901200095CDE9010469463046039402
:101D8000FFF714F806B070BD30380240001C024066
:101D90000C4810B50A4901604FF4E131416000215F
:101DA00081600C22C160C0E904128161C161FFF74A
:101DB00081FE002803D0BDE81040FEF78CBA10BDAC
:101DC00000100140BC020020FEE7FEE770477047AC
:101DD000FFF718B930B593B030216846FEF72AFAFC
:101DE00014210CA8FEF726FA1D480025016841F0D1
:101DF00080510160006800F080501190194801681E
:101E000041F4804101600068022400F48040119098
:101E10000120039010200490009406940820CDE93E
:101E20000750A820CDE9090404200B906846FFF76D
:101E3000B5FA08B172B6FEE70CA90F2081E83100AF
:101E40004FF4A0500F904FF48050109005210CA833
:101E5000FFF788F9002801D072B6FEE713B030BD55
:101E600040380240007000400448016841F47001AD
:101E7000016003494FF000600860704788ED00E0A2
:101E800008ED00E010B5806B0021C185C184FFF72B
:101E9000DCFC10BD01680C3151E8002F22F4907277
:101EA00041E80023002BF5D10168143151E8002FDF
:101EB00022F0010241E80023002BF5D1016B01293A
:101EC00009D101680C3151E8002F22F0100241E8DD
:101ED0000023002BF5D1202180F84210002101635E
:101EE000704710B50168CA6822F04002CA6020211C
:101EF00080F84110FFF7BFFE002010BD08B590F834
:101F00004210222901D0022008BD8268B2F5805F0C
:101F100001D1016929B1816AB2F5805F1DD052B14A
:101F20000BE0816A02685268C2F308020A80816A83
:101F3000891C816209E002697AB10268526802F084
:101F40007F020A70816A491C8162C18D491E0904A1
:101F5000090CC18505D0002008BD026852680A70CE
:101F6000F0E70168CA6822F02002CA600168CA6806
:101F700022F48072CA6001684A6922F001024A6153
:101F8000202180F8421000214163026B012A03D016
:101F9000FFF714FE002008BD016301680C3151E811
:101FA000002F22F0100241E80023002BF5D1016838
:101FB0000A6812F0100F02D00A6849680091818DFA
:101FC000FFF742FCE6E700002DE9F04104462068F7
:101FD0000169E26821F44051114301612169A0685F
:101FE000E26908436169114301432068C26822F431
:101FF000037222F414421143C16020684169A2694E
:1020000021F44071114341612068A0F18041B1F594
:1020100088312ED0A0F18041B1F58A3129D0FFF767
:1020200065F98446E16900201927254D3226B1F56E
:10203000004F22D06068830F8200ACFB0701FEF7DF
:10204000C1F80146A5FB002040097A42424301EB5A
:10205000820106EB0111A5FB0121490901F0F00203
:1020600002EB001001F00F01084421688860BDE810
:10207000F081FFF74BF98446D4E761684A1840EBDA
:102080000003ACFB0701FEF79DF80346A5FB00101B
:10209000410918460A016FF01803594300EB81000B
:1020A00006EBC000A5FB0010400900F0F80102EBB0
:1020B000410100F00700084421688860BDE8F08114
:1020C0001F85EB5190F84110212901D00220704763
:1020D0008168B1F5805F01D1016961B1016A4A1C73
:1020E0000262026809785160C18C491E0904090C1A
:1020F000C1840AD013E0016A02680988C1F30801AB
:102100005160016A891C0162EEE70168CA6822F029
:102110008002CA600068C16841F04001C1600020CF
:1021200070472DE9F8430446089E0D461746984629
:102130002068006835EA000028D00020B84232D17B
:10214000B6F1FF3F27D0FEF757FFA0EB0800B042E3
:102150001ED8EEB12068C16811F0040F1BD0802D8D
:1021600019D0402D17D0016811F0080F13D00025A9
:1021700021680968406800902046FFF78BFE082020
:10218000606484F840500120BDE8F8830120D5E761
:102190000320BDE8F8832068006835EA000005D018
:1021A0000020B842CCD00020BDE8F8830120F8E739
:1021B0000148FFF74BBB0000BC020020FEE702E035
:1021C00008C8121F08C1002AFAD1704770470020C2
:1021D00001E001C1121F002AFBD170472DED028BD7
:1021E00056A084B000680390FEF714FFFFF7F2FDDD
:1021F000FFF788FDFFF742FDFFF7CAFDFFF762FD1D
:102200004F48FEF722FD4E4800F0A8F802214C4846
:10221000FEF763F84B4E002740F6C410B8464FF463
:10222000FA599FED498ADFED498A494D41F2883AD2
:102230004FF4804BC6F8000007EBC70000EB071017
:1022400005EB8004204600F019F9CDE90089CDF8AE
:102250000880D4F858C02046F0EE481AB0EE681A4C
:10226000F7EE080AB2EE040A53465A460121E04747
:102270007F1C042FE0DB374F0DF10C080A230122ED
:1022800003A93548FFF79BFC44460A230122611C41
:102290003148FFF794FC0A2302222E492E48FFF70B
:1022A0008EFC0A230122A11C2B48FFF788FC0A237D
:1022B0000122E11C2848FFF782FC002496ED000A69
:1022C00004EBC40000EB0410B8EEC00A05EB80007C
:1022D00004EB440107EB011180ED010AB1F9001094
:1022E00000EE101A016EB8EEC00A8847641C042C78
:1022F000E4DB95ED570ABDEEC00A10EE100A00B2FD
:10230000009095ED3E0ABDEEC00A10EE100A95ED64
:10231000250A03B2BDEEC00A10EE100A95ED0C0AB4
:1023200002B2BDEEC00A10EE100A01B2044800F07D
:10233000E3F80A20FEF726FDA0E7000003FCFC03FB
:102340006C0200200400002000000000CDCC4C3DB9
:10235000DC0000201C000020BC02002000B58BB077
:1023600000210122CDE90612039100910191029111
:1023700004910E21059108926946FEF739F80BB0D9
:1023800000BD10B504462DED028BB0EE408AC06C46
:102390002065FEF731FEE06494F85010401A84F88E
:1023A000540084ED068AD4ED071AC4ED081A94EDA2
:1023B0000C0A84ED0D0A94ED010A30EE480A84ED12
:1023C000070AB5EEC00AF1EE10FA02DDF0EE400A9F
:1023D00001E0F1EE400A94ED101AF4EEC10AF1EEBC
:1023E00010FA46DDD4ED030A20EE801A84ED091AB6
:1023F000D4ED0A0A94ED042A42EE000A30EE610A96
:10240000C4ED0A0AD4ED051A60EE211AC4ED0B1AC8
:1024100094ED0F0AF4EEC00AF1EE10FA01DD84ED3E
:102420000A0AD4ED0A0AB1EE400AF4EEC00AF1EE4F
:1024300010FA02D3B0EE600A01E084ED0A0A31EE30
:10244000000A70EE210AC4ED0C0A94ED0E0AF4EEB7
:10245000C00AF1EE10FA01DD84ED0C0AD4ED0C0A8D
:10246000B1EE400AF4EEC00AF1EE10FA01D284EDAA
:102470000C0A94ED0C0ABDEC028B10BD034981657A
:102480000349C165034901667047000099240008AB
:10249000F1240008832300089DED003A9DED022AF7
:1024A000DDED012AB8EE433A017080ED113A80ED7E
:1024B000100A00EE103AB8EE400A80ED0F0A00EE66
:1024C000102AB8EE400A80ED0E0AB8EEE20A80ED5E
:1024D000120AB8EEC20A80ED010A9FED040A80EDEF
:1024E0000C0A0C30C0EC030A70470000000000002A
:1024F0000C3080EC030A704770B58AB000244FF4AA
:102500000076CDE900640E9D089408260294CDE97A
:1025100003468DF814400C0A8DF818408DF81910F8
:10252000110A8DF81A10190A8DF81C108DF81D303B
:10253000290A8DF81E108DF81B208DF81F5008AB4E
:1025400006AA6946FDF7DBFE0AB070BD0000000078
:102550000000000001020304060708090000000053
:102560000102030484250008000000201C00000074
:10257000BE210008A02500081C000020EC06000079
:10258000CE21000800000000000000000000000054
:102590000100000010000000000000000024F40012
:040000050800018965
:00000001FF
